:1000000014C062C02DC02CC02CC02AC029C028C07A
:1000100027C026C025C024C023C022C021C020C0C4
:100020001FC01EC01DC01CC01BC011241FBECFE5B9
:10003000D1E0DEBFCDBF10E0A0E6B0E0E2E2F1E04B
:1000400002C005900D92A236B107D9F720E0A2E6D2
:10005000B0E001C01D92A436B207E1F747D05FC0FF
:10006000CFCF1F920F920FB60F9211248F939F93B1
:10007000809163008F5F809363009091600089138B
:1000800005C018BA82B3836082BB17C08A30A9F456
:1000900080916200811104C08AEA88BB909805C0F3
:1000A000813019F485E588BB919881E080936300E5
:1000B000909162008927809362009F918F910F90A9
:1000C0000FBE0F901F9018951F920F920FB60F92B0
:1000D00011248F939F9392B383E0892782BB9F91D2
:1000E0008F910F900FBE0F901F90189583E085BFE2
:1000F00080E48BBF87B38F6787BB81B3836081BB8D
:100100008EB588608EBD8EB583608EBD84E390E031
:100110009BBD8ABD89B7806489BF7894FFCFF8946E
:02012000FFCF0F
:020122000900D2
:00000001FF
