:1000000014C04CC039C021C020C01FC01EC01DC0BC
:100010001CC01BC01AC019C018C018C016C015C01B
:1000200014C013C012C011C010C011241FBECFE5F0
:10003000D1E0DEBFCDBF20E0A0E6B0E001C01D9260
:10004000A136B207E1F74DD065C0DACF1F920F920B
:100050000FB60F9211248F93809160008F5F8436CA
:1000600019F08093600002C0109260008F910F9091
:100070000FBE0F901F9018951F920F920FB60F9200
:1000800011248F939F9398B388E0892788BB9F9111
:100090008F910F900FBE0F901F9018951F920F9287
:1000A0000FB60F9211242F933F934F935F936F934B
:1000B0007F938F939F93AF93BF93EF93FF93DCDF77
:1000C000FF91EF91BF91AF919F918F917F916F9130
:1000D0005F914F913F912F910F900FBE0F901F9006
:1000E000189588E087BB82E080BF85E083BF8EE4FF
:1000F00086BF81E089BF8BE085BF80EC8BBF7894A1
:100100002FE784E89EE1215080409040E1F700C055
:080110000000F6CFF894FFCFC8
:00000001FF
