:1000000014C053C02DC02CC02CC02AC029C028C089
:1000100027C026C025C024C023C022C021C020C0C4
:100020001FC01EC01DC01CC01BC011241FBECFE5B9
:10003000D1E0DEBFCDBF10E0A0E6B0E0EEEFF0E033
:1000400002C005900D92A236B107D9F720E0A2E6D2
:10005000B0E001C01D92A336B207E1F738D04DC021
:10006000CFCF1F920F920FB60F9211248F939F93B1
:10007000809162008F5F809362009091600089138D
:1000800005C098B381E0892788BB08C08A3031F465
:1000900088B391E0892788BB909362009F918F91EC
:1000A0000F900FBE0F901F9018951F920F920FB6D2
:1000B0000F9211248F939F9398B382E0892788BB76
:1000C0009F918F910F900FBE0F901F90189583E016
:1000D00085BF80E48BBF87B3836087BB8EB58860A4
:1000E0008EBD8EB583608EBD84E390E09BBD8ABDDE
:0E00F00089B7806489BF7894FFCFF894FFCF62
:0200FE000200FE
:00000001FF
