:1000000014C025C122C021C0DEC01FC01EC01DC03B
:100010001CC01BC01AC019C018C017C016C015C01C
:1000200014C013C012C011C010C011241FBECFE5F0
:10003000D1E0DEBFCDBF20E0A0E6B0E001C01D9260
:10004000A936B207E1F74CD19DC1DACF28E030E004
:1000500042E080FDDA9A80FFDA989BB394279BBB3D
:100060009BB394279BBB86952150310991F79BB395
:1000700081E098279BBB9BB389278BBB0895909108
:1000800063009130B1F490916200809160009130F2
:1000900071F1923011F493E017C0933011F492E0B3
:1000A00036C0943011F493E03AC0809160008778B4
:1000B0003AC09230A1F4209162008091600021301A
:1000C000B1F0223021F497E0909364001AC02330FD
:1000D00011F494E01CC0243041F796E020C0933026
:1000E00021F52091620080916000213029F49093E5
:1000F00064008778886017C0223031F491E09093D3
:100100006500877880610FC0233031F495E09093CB
:1001100064008778806207C0243039F699E09093B4
:1001200064008778806480936000089590916600F1
:1001300091FF14C08091640081110DC08091650011
:10014000811104C09460909366000895815080935B
:10015000650089E001C0815080936400089580911A
:10016000660080FD04C090988091650003C091985E
:1001700080916400811102C08EE723C0813011F4A8
:1001800080E31FC0823011F48DE61BC0833011F470
:1001900089E717C0843011F483E313C0853011F46C
:1001A0008BE50FC0863011F48FE50BC0873011F45A
:1001B00080E707C0883011F48FE703C0893011F45D
:1001C00083E788BB08951F920F920FB60F921124F8
:1001D0002F933F934F935F936F937F938F939F934F
:1001E000AF93BF93EF93FF93809168008F5F8093ED
:1001F0006800893029F418BA82B3836082BB16C0C4
:100200008A30A1F4809167008F5F809367008F3FF1
:1002100009F48CDFA4DF8091600018DF81E0809317
:10022000680090916600892780936600FF91EF91A6
:10023000BF91AF919F918F917F916F915F914F91FE
:100240003F912F910F900FBE0F901F9018951F9206
:100250000F920FB60F9211242F933F934F936F93EA
:100260007F938F939F9380B38695869586958370B1
:10027000D1F080916100811127C080B38695869569
:10028000869583708093630040916000487F815021
:1002900021E030E0B90102C0660F771F8A95E2F7CE
:1002A000CB01842B0FC09091660082E08927809358
:1002B0006600909160009F7782708295880F880F0A
:1002C000807C892B809360009F918F917F916F91AB
:1002D0004F913F912F910F900FBE0F901F90189547
:1002E00083E085BF80E48BBF8AB387608ABB87B316
:1002F0008FEF87BB81B3836081BB8EB588608EBD75
:100300008EB583608EBD80E390E09BBD8ABD89B7CA
:10031000806489BF7894C1E08091610081110BC035
:100320008091660081FFF8CF809163008823A1F35C
:10033000C0936100F1CF813079F780916200909194
:100340006600853089F49D7F90936600109262006C
:100350001092650010926400809160008770809315
:10036000600010926100D8CF92FFD6CF8F5F80934C
:1003700062001092670083DE809166008B7F80931D
:080380006600CACFF894FFCF1C
:00000001FF
