:1000000014C03AC05FC021C020C01FC01EC01DC0A8
:100010001CC01BC01AC04CC018C018C016C015C0E8
:1000200014C013C012C011C010C011241FBECFE5F0
:10003000D1E0DEBFCDBF20E0A0E6B0E001C01D9260
:10004000A136B207E1F748D063C0DACF1F920F9212
:100050000FB60F9211248F93809160008F5F8436CA
:1000600019F08093600002C0109260008F910F9091
:100070000FBE0F901F9018951F920F920FB60F9200
:1000800011248F939F9392B383E0892782BB80B31F
:10009000887790E09595879595958795959587951F
:1000A00088BB9F918F910F900FBE0F901F90189556
:1000B0001F920F920FB60F9211240F900FBE0F9048
:1000C0001F9018951F920F920FB60F9211240F9048
:1000D0000FBE0F901F90189523E021BB9FE797BBA1
:1000E00082E080BF85E083BF8EE486BF81E089BF68
:1000F00025BF20E42BBF789498BB82BB2FE784E810
:100100009EE1215080409040E1F700C00000F6CF12
:04011000F894FFCF91
:00000001FF
